:020000040800F2
:100000000050002035660008DD640008DF64000849
:10001000E1640008E3640008E564000800000000F3
:10002000000000000000000000000000E76400087D
:10003000E964000800000000EB640008ED640008BB
:100040007D6600087D6600087D6600087D66000804
:100050007D6600087D6600087D6600087D660008F4
:100060007D6600087D6600087D6600087D660008E4
:100070007D6600087D6600087D6600087D660008D4
:100080007D6600087D6600087D660008F96400084A
:10009000096500087D6600087D6600087D66000829
:1000A0007D6600087D6600087D6600087D660008A4
:1000B0007D6600087D6600087D6600087D66000894
:1000C0007D6600087D6600087D6600087D66000884
:1000D0007D6600087D6600087D6600087D66000874
:1000E0007D6600087D6600087D660008000000004F
:1000F0000000000000000000000000000000000000
:0C01000000000000000000005FF808F1A3
:10010C0010B5054C237833B9044B13B10448AFF345
:10011C0000800123237010BD8C0000200000000023
:10012C003C6F00080C4B43B10C4810B50C49AFF3B5
:10013C0000800C48036823B910BD0A48036833B922
:10014C007047094B002BF7D0BDE810401847064B01
:10015C00002BF5D0184700BF000000003C6F0008D2
:10016C00900000208C0000200000000081F0004175
:10017C0002E000BF83F0004330B54FEA41044FEA80
:10018C00430594EA050F08BF90EA020F1FBF54EA1B
:10019C00000C55EA020C7FEA645C7FEA655C00F0B7
:1001AC00E2804FEA5454D4EB5555B8BF6D420CDD88
:1001BC002C4480EA020281EA030382EA000083EA0B
:1001CC00010180EA020281EA0303362D88BF30BDAB
:1001DC0011F0004F4FEA01314FF4801C4CEA113101
:1001EC0002D0404261EB410113F0004F4FEA033360
:1001FC004CEA133302D0524263EB430394EA050FEB
:10020C0000F0A780A4F10104D5F1200E0DDB02FA59
:10021C000EFC22FA05F2801841F1000103FA0EF2ED
:10022C00801843FA05F359410EE0A5F120050EF1B3
:10023C00200E012A03FA0EFC28BF4CF0020C43FAE4
:10024C0005F3C01851EBE37101F0004507D54FF0F1
:10025C00000EDCF1000C7EEB00006EEB0101B1F541
:10026C00801F1BD3B1F5001F0CD349085FEA300087
:10027C004FEA3C0C04F101044FEA445212F5800F92
:10028C0080F09A80BCF1004F08BF5FEA500C50F12F
:10029C00000041EB045141EA050130BD5FEA4C0C12
:1002AC00404141EB010111F4801FA4F10104E9D19B
:1002BC0091F0000F04BF01460020B1FA81F308BF92
:1002CC002033A3F10B03B3F120020CDA0C3208DD5E
:1002DC0002F1140CC2F10C0201FA0CF021FA02F139
:1002EC000CE002F11402D8BFC2F1200C01FA02F1A9
:1002FC0020FA0CFCDCBF41EA0C019040E41AA2BFCE
:10030C0001EB0451294330BD6FEA04041F3C1CDA95
:10031C000C340EDC04F11404C4F1200220FA04F0B5
:10032C0001FA02F340EA030021FA04F345EA03015F
:10033C0030BDC4F10C04C4F1200220FA02F001FA21
:10034C0004F340EA0300294630BD21FA04F02946A3
:10035C0030BD94F0000F83F4801306BF81F480113C
:10036C000134013D4EE77FEA645C18BF7FEA655CAF
:10037C0029D094EA050F08BF90EA020F05D054EA81
:10038C00000C04BF1946104630BD91EA030F1EBF86
:10039C000021002030BD5FEA545C05D1400049418A
:1003AC0028BF41F0004130BD14F580043CBF01F57D
:1003BC00801130BD01F0004545F0FE4141F4700163
:1003CC004FF0000030BD7FEA645C1ABF194610463E
:1003DC007FEA655C1CBF0B46024650EA013406BF3F
:1003EC0052EA033591EA030F41F4002130BD00BFFE
:1003FC0090F0000F04BF0021704730B54FF48064BB
:10040C0004F132044FF000054FF0000150E700BF3B
:10041C0090F0000F04BF0021704730B54FF480649A
:10042C0004F1320410F0004548BF40424FF0000187
:10043C003EE700BF42004FEAE2014FEA31014FEACA
:10044C0002701FBF12F07F4393F07F4F81F0605119
:10045C00704792F0000F14BF93F07F4F704730B588
:10046C004FF4607401F0004521F0004120E700BF1B
:10047C0050EA010208BF704730B54FF000050AE0A2
:10048C0050EA010208BF704730B511F0004502D5A3
:10049C00404261EB41014FF4806404F132045FEAA5
:1004AC00915C3FF4DCAE4FF003025FEADC0C18BF4A
:1004BC0003325FEADC0C18BF033202EBDC02C2F140
:1004CC00200300FA03FC20FA02F001FA03FE40EAD2
:1004DC000E0021FA02F11444C1E600BF70B54FF0D2
:1004EC00FF0C4CF4E06C1CEA11541DBF1CEA1355B4
:1004FC0094EA0C0F95EA0C0F00F0DEF82C4481EA1C
:10050C00030621EA4C5123EA4C5350EA013518BF3B
:10051C0052EA033541F4801143F4801338D0A0FB28
:10052C0002CE4FF00005E1FB02E506F00042E0FBD5
:10053C0003E54FF00006E1FB03569CF0000F18BFDB
:10054C004EF0010EA4F1FF04B6F5007F64F5407483
:10055C0004D25FEA4E0E6D4146EB060642EAC62116
:10056C0041EA55514FEAC52040EA5E504FEACE2E83
:10057C00B4F1FD0C88BFBCF5E06F1ED8BEF1004F86
:10058C0008BF5FEA500E50F1000041EB045170BD02
:10059C0006F0004646EA010140EA020081EA030146
:1005AC00B4EB5C04C2BFD4EB0C0541EA045170BD42
:1005BC0041F480114FF0000E013C00F3AB8014F1BC
:1005CC00360FDEBF002001F0004170BDC4F1000405
:1005DC00203C35DA0C341BDC04F11404C4F1200586
:1005EC0000FA05F320FA04F001FA05F240EA0200E1
:1005FC0001F0004221F0004110EBD37021FA04F617
:10060C0042EB06015EEA430E08BF20EAD37070BDD0
:10061C00C4F10C04C4F1200500FA04F320FA05F02F
:10062C0001FA04F240EA020001F0004110EBD37031
:10063C0041F100015EEA430E08BF20EAD37070BDA1
:10064C00C4F1200500FA05F24EEA020E20FA04F37A
:10065C0001FA05F243EA020321FA04F001F0004129
:10066C0021FA04F220EA020000EBD3705EEA430E9A
:10067C0008BF20EAD37070BD94F0000F0FD101F0C9
:10068C000046400041EB010111F4801F08BF013C02
:10069C00F7D041EA060195F0000F18BF704703F040
:1006AC000046520043EB030313F4801F08BF013DC7
:1006BC00F7D043EA0603704794EA0C0F0CEA135583
:1006CC0018BF95EA0C0F0CD050EA410618BF52EA3D
:1006DC004306D1D181EA030101F000414FF0000043
:1006EC0070BD50EA410606BF1046194652EA430651
:1006FC0019D094EA0C0F02D150EA013613D195EAC5
:10070C000C0F05D152EA03361CBF104619460AD10C
:10071C0081EA030101F0004141F0FE4141F4700116
:10072C004FF0000070BD41F0FE4141F4780170BD06
:10073C0070B54FF0FF0C4CF4E06C1CEA11541DBF6B
:10074C001CEA135594EA0C0F95EA0C0F00F0A7F86D
:10075C00A4EB050481EA030E52EA03354FEA01319A
:10076C0000F088804FEA03334FF0805545EA1313AD
:10077C0043EA12634FEA022245EA111545EA106575
:10078C004FEA00260EF000419D4208BF964244F10C
:10079C00FD0404F5407402D25B084FEA3202B61A2B
:1007AC0065EB03055B084FEA32024FF480104FF4FF
:1007BC00002CB6EB020E75EB030E22BFB61A754673
:1007CC0040EA0C005B084FEA3202B6EB020E75EB06
:1007DC00030E22BFB61A754640EA5C005B084FEA6E
:1007EC003202B6EB020E75EB030E22BFB61A75463B
:1007FC0040EA9C005B084FEA3202B6EB020E75EB46
:10080C00030E22BFB61A754640EADC0055EA060E06
:10081C0018D04FEA051545EA16754FEA06164FEA49
:10082C00C30343EA52734FEAC2025FEA1C1CC0D1F5
:10083C0011F4801F0BD141EA00014FF000004FF082
:10084C00004CB6E711F4801F04BF01430020B4F143
:10085C00FD0C88BFBCF5E06F3FF6AFAEB5EB030CFB
:10086C0004BFB6EB020C5FEA500C50F1000041EBF8
:10087C00045170BD0EF0004E4EEA113114EB5C04C5
:10088C00C2BFD4EB0C0541EA045170BD41F4801198
:10089C004FF0000E013C90E645EA060E8DE60CEAA0
:1008AC00135594EA0C0F08BF95EA0C0F3FF43BAFBD
:1008BC0094EA0C0F0AD150EA01347FF434AF95EA74
:1008CC000C0F7FF425AF104619462CE795EA0C0F58
:1008DC0006D152EA03353FF4FDAE1046194622E725
:1008EC0050EA410618BF52EA43067FF4C5AE50EAFF
:1008FC0041047FF40DAF52EA43057FF4EBAE12E7EF
:10090C004FEA410212F5001215D211D56FF478732B
:10091C00B3EB625212D94FEAC12343F0004343EACE
:10092C00505311F0004F23FA02F018BF40427047A9
:10093C004FF00000704750EA013005D111F0004033
:10094C0008BF6FF0004070474FF00000704700BFC9
:10095C0010B504460E4B18784FF47A73B3FBF0F3D2
:10096C000C4A1068B0FBF3F000F03EFC68B90F2C99
:10097C0001D9012010BD002221464FF0FF3000F0BC
:10098C00F5FB034B5C60002010BD012010BD00BFC7
:10099C00000000200C00002008B5074A136843F043
:1009AC0010031360032000F0CFFB0020FFF7D0FFF3
:1009BC0005F03EFD002008BD00200240034A1168EE
:1009CC00034B1B780B441360704700BF8813002047
:1009DC0000000020014B1868704700BF88130020EE
:1009EC0038B50446FFF7F6FF0546B4F1FF3F02D0D9
:1009FC00044B1B781C44FFF7EDFF401B8442FAD8D4
:100A0C0038BD00BF00000020F0B44B6901229A40B1
:100A1C000468D4F8003223F47C534D6A43EA05236E
:100A2C0043F00103C4F800320568D5F81C42D343E7
:100A3C001C40C5F81C42CC69C4B90568D5F80C42F9
:100A4C001C40C5F80C4206684C69CF688D8845EA95
:100A5C000745483446F8345004684E698F680D8851
:100A6C0045EA0745483604EBC6046560CC69012CA1
:100A7C001ED08C69002C35D10568D5F804421C4079
:100A8C00C5F804420C69002C33D10468D4F8145214
:100A9C002B40C4F814320B6A012B31D00268D2F807
:100AAC00003223F00103C2F800320020F0BC704782
:100ABC000568D5F80C421443C5F80C4206684C691D
:100ACC000F688D8845EA0745483446F83450046869
:100ADC004E698F688D8945EA0745483604EBC60494
:100AEC006560C6E70568D5F804421443C5F80442AE
:100AFC00C8E70468D4F814321343C4F81432CAE7B4
:100B0C000368D3F81C120A43C3F81C22C6E700285A
:100B1C0000F09C8038B5044690F83C3003B30223B7
:100B2C0084F83C302268136823F0020313602268B7
:100B3C00136843F001031360FFF74CFF054623686D
:100B4C005A6812F0010F10D1FFF744FF401B0A281E
:100B5C00F5D9032084F83C00002384F83D3038BDDF
:100B6C0080F83D3004F02EFBD9E75A6812F0010FE3
:100B7C005DD0A269012A43D00022E169012941D04C
:100B8C0022F04002216A01293FD022F02002616A42
:100B9C0001293DD022F01002A16A01293BD022F09C
:100BAC000802E16A012939D022F00402196821F007
:100BBC00FC010A431A602168A368E26813432269A6
:100BCC001343626913436268013A1343CB61226891
:100BDC00136823F001031360FFF7FCFE054623683E
:100BEC005A6812F0010F1CD0FFF7F4FE401B0A28C4
:100BFC00F5D9032084F83C00002384F83D3038BD3F
:100C0C008022BAE742F04002BCE742F02002BEE785
:100C1C0042F01002C0E742F00802C2E742F00402C0
:100C2C00C4E75B6813F0010F08D0002300E0002339
:100C3C0033B9042384F83C30012038BD0123F7E795
:100C4C0000202064012384F83C3038BD012070471B
:100C5C000B4699B990F83C20D2B2222A7CD090F85D
:100C6C003C20D2B2422A79D090F83C20D2B2622AEF
:100C7C0076D090F83C20D2B2722A73D0012B16D0C9
:100C8C0090F83D20012A75D010B4012280F83D2047
:100C9C00002B41D190F83C20D2B2322A34D0522AC7
:100CAC0036D0122A19D0222280F83C2018E090F875
:100CBC003C20D2B2322A57D090F83C20D2B2522AE1
:100CCC0054D090F83C20D2B2622A51D090F83C20FB
:100CDC00D2B2722AD4D102207047422280F83C2032
:100CEC00002101640468626942F40F4242F001027F
:100CFC00626180F83D1043B30268536943F05003BE
:100D0C005361002010BC7047622280F83C20E7E75A
:100D1C00722280F83C20E3E790F83C20D2B2222AE1
:100D2C000BD0422A0DD0122A03D0322280F83C205C
:100D3C00D6E7522280F83C20D2E7622280F83C2091
:100D4C00CEE7722280F83C20CAE70268536943F070
:100D5C000A0353610846D5E702207047022070470A
:100D6C000220704702207047022070470220704713
:100D7C000220704702207047704708B5026853691B
:100D8C0023F00103536190F83C30DBB2122B0CD0F2
:100D9C0090F83C30DBB2522B14D0722B16D0422B75
:100DAC0009D0012380F83C3008E00268536923F431
:100DBC000F435361ECE7222380F83C30FFF7DCFF54
:100DCC00002008BD322380F83C30F7E7622380F81E
:100DDC003C30F3E7704710B50C46002974D1436BD7
:100DEC00016804F11B0212018A5802F004029A6095
:100DFC00002A6BD1016804F11B0212018A58520DB2
:100E0C001A60016804F11B021201895801F00201F9
:100E1C00D96001681144496801F00F0119611C6225
:100E2C0001680A445268C2F30722DA6101682201A0
:100E3C001144D1F8B811197501681144D1F8B811E1
:100E4C00090A597501681144D1F8B811090C997542
:100E5C0001681144D1F8B811090ED9750168114413
:100E6C00D1F8BC11197601681144D1F8BC11090AEA
:100E7C00597601681144D1F8BC11090C99760168B6
:100E8C000A44D2F8BC21120EDA763CBB036820224D
:100E9C00DA600268536923F00A03536190F83C301E
:100EAC00DBB2222B23D0322B21D0002C34D190F862
:100EBC003C30DBB2622B27D0722B29D0422B1CD0BA
:100ECC00012380F83C301BE0836B89E7016804F157
:100EDC001B0212018A58D2085A6092E7036820223A
:100EEC001A610268536923F050035361D6E7026814
:100EFC00536923F40F435361D7E7122380F83C3036
:100F0C00FFF768FF002010BD322380F83C30F7E774
:100F1C00522380F83C30F3E790F83C30DBB2622B84
:100F2C000BD0722B0DD0522B03D0012380F83C3008
:100F3C00E6E7122380F83C30E2E7222380F83C30CD
:100F4C00DEE7422380F83C30DAE7000070B5044657
:100F5C000268D168536911F0100F09D003F008032F
:100F6C00002B00F0A6801023D3604FF4007500E036
:100F7C00002522681169536903F0400311F0100F2A
:100F8C0004D01BB145F480651023136123685A69A2
:100F9C0012F0010F28D09E689968674A0A40996838
:100FAC0021F06F4121F47E01090C09046348B04320
:100FBC0005D06148824202D0614A914214D19968AD
:100FCC009A6802F400729B6803F0010311F0020F9F
:100FDC0002D10AB9002B6ED02046FFF7CEFE226854
:100FEC009168584B0B4393602368DA685B6903F094
:100FFC00020312F0030F01D0002B5FD123681A6992
:10100C005B6903F0100312F0030F01D0002B5AD1CF
:10101C00236C1D432564236898695A6902F4807215
:10102C00596901F4004110F0010F05D022B119B13A
:10103C00226C42F00102226498695A6902F400722F
:10104C00596901F4004110F0020F05D022B119B119
:10105C00226C42F00202226498695A6902F480629E
:10106C00596901F4004110F0040F05D022B119B1F7
:10107C00226C42F00402226498695A6902F40062FC
:10108C00596901F4004110F0700F32D08AB381B36A
:10109C009A6902F07002302A2ED019D9502A30D019
:1010AC00602A33D0402A20D1226C42F040022264C4
:1010BC001BE000255DE745F4006590E70021204624
:1010CC00FFF789FE9AE701212046FFF784FE9FE790
:1010DC00102A06D0202A08D1226C42F01002226479
:1010EC0003E0226C42F0080222649A6922F070023A
:1010FC009A61236C7BB970BD226C42F02002226491
:10110C00F3E7226C42F080022264EEE7226C42F498
:10111C0080722264E9E7236804225A60012384F870
:10112C003C302268536923F40F4323F05B03536173
:10113C00204604F0F1F8DEE700010008010000048D
:10114C000000011009050100074AD36823F4E0638D
:10115C001B041B0C000200F4E060184340F0BF605D
:10116C0040F40030D060704700ED00E030B4164B16
:10117C00DB68C3F30223C3F10704042C28BF042447
:10118C001D1D062D17D9033B012505FA04F4013C5E
:10119C002140994005FA03F3013B13401943002801
:1011AC000BDB0901C9B200F1604000F5614080F829
:1011BC00001330BC70470023E6E700F00F00090174
:1011CC00C9B2024B1954F4E700ED00E014ED00E055
:1011DC00420900F01F00012303FA00F0014B43F811
:1011EC002200704700E100E00138B0F1807F0AD2A4
:1011FC00064B5860F021064A82F8231000209860B4
:10120C0007221A6070470120704700BF10E000E011
:10121C0000ED00E0042805D0054A136823F0040310
:10122C0013607047024A136843F00403136070475D
:10123C0010E000E0704708B5FFF7FCFF08BD0000A8
:10124C00F0B583B00026344671E0002D00F0A1808B
:10125C00012D00D1CE68FF2B00F2AF808646FF2B0C
:10126C0000F2AE80A500DEF800200F27AF4022EA86
:10127C00070206FA05F52A43CEF800204A6812F058
:10128C00805F53D0634A956945F001059561926979
:10129C0002F001020192019AA508AF1C5E4A52F8B5
:1012AC00272004F00307BF004FF00F0E0EFA07FEC5
:1012BC0022EA0E02DFF870E1704500F088800EF52E
:1012CC00806E704500F086800EF5806E704500F0E3
:1012DC0084800EF5806E704576D04FF0040E0EFAB9
:1012EC0007F73A4302354C4F47F825204A6812F469
:1012FC00803F75D0494D2A681A432A604A6812F417
:10130C00003F73D0454D6A681A436A604A6812F40C
:10131C00801F71D0414DAA681A43AA604A6812F422
:10132C00001F6FD03D4DEA681343EB6001340F2C66
:10133C006ED80122A2400B6813409A42F6D14D6838
:10134C00122D30D00BD8022D2AD07FF67EAF032D74
:10135C002FD0112D7FF47FAFCE6804367BE7304F52
:10136C00BD4216D00CD92F4FBD4212D007F5803795
:10137C00BD420ED0A7F58017BD427FF46CAF08E0DC
:10138C00A7F58017BD4204D007F58037BD427FF426
:10139C0062AF8D687DB1012D08D0426108265AE7F5
:1013AC00CE68083657E7CE680C3654E7026108263B
:1013BC0051E700264FE704264DE700F1040E4EE7F7
:1013CC00A4F10805AD004EE74FF0030E87E74FF090
:1013DC00000E84E74FF0010E81E74FF0020E7EE71E
:1013EC000E4D2A6822EA03022A6087E70B4D6A68D1
:1013FC0022EA03026A6089E7084DAA6822EA03021E
:10140C00AA608BE7054DEA6822EA0303EB608DE7DF
:10141C0003B0F0BD00100240000001400004014088
:10142C0000002110000031100008014012B909041D
:10143C000161704701617047C3685940C1607047D2
:10144C0003685A6912F4806F0DD06FF480625A6190
:10145C000423036400230363202280F83D2080F8DA
:10146C003C300120704700207047F8B506460C460A
:10147C0017461D461EE02DB1FFF7ACFA069BC01AAD
:10148C00854217D200233363202286F83D2086F84C
:10149C003E3086F83C300320F8BD33685B6924EAA3
:1014AC0003039BB2B3FA83F35B09BB420FD1B5F1D3
:1014BC00FF3FE0D1C4F30743012BEED033689B69A7
:1014CC0024EA03039BB2B3FA83F35B09EDE7002034
:1014DC00F8BDF8B504460D4616461F4632E01A68AC
:1014EC0042F400721A6023686FF480625A6104231C
:1014FC00236400232363202284F83D2084F83C30AD
:10150C000120F8BD26B1FFF765FAC01B864219D23F
:10151C0000232363202284F83D2084F83C300320F0
:10152C00F8BD23685B6925EA03039BB2003318BF3F
:10153C000123A3B123685A6912F4806FCFD1B6F19D
:10154C00FF3FDFD1C5F30743012BEAD023689B692A
:10155C0025EA03039BB2003318BF0123E9E70020FF
:10156C00F8BD0000F0B583B004460F4615461E4684
:10157C00C36A042B0DD0012B0BD013F5803F08D080
:10158C00036B122B0AD10268136843F48073136047
:10159C0004E02268136843F48073136000962B46B2
:1015AC0000224FF001112046FFF75FFF18B1032313
:1015BC00184603B0F0BD2369B3F5804F12D02268F2
:1015CC00FB1103F0060343F0F003136133462A4684
:1015DC0011492046FFF77DFFC0B1236C042B13D0BB
:1015EC000323E5E7236807F0FE071F6133462A460D
:1015FC000A492046FFF76DFF03460028D8D0236C1C
:10160C00042B07D00323D3E70123D1E72368FFB2D0
:10161C001F61EBE70123CBE708000100020001008A
:10162C002DE9F04184B004460F4615461E46C26AA9
:10163C0001680B6843F480630B60042A0DD0012A07
:10164C000BD012F5803F08D0036B112B0AD1026826
:10165C00136843F48073136004E02268136843F446
:10166C008073136000962B4600224FF00111204628
:10167C00FFF7FBFE20B10323184604B0BDE8F08150
:10168C002369B3F5804F13D023684FEAE71808F0AD
:10169C00060848F0F0021A6133462A4626492046CD
:1016AC00FFF717FFC8B1236C042B14D00323E3E717
:1016BC00236847F00107FFB21F6133462A461F49D2
:1016CC002046FFF706FF03460028D5D0236C042BD9
:1016DC002FD00323D0E70123CEE72368FFB21F618D
:1016EC0033462A4615492046FFF7F3FE30B1236CEA
:1016FC00042B01D00323BFE70123BDE70022039293
:10170C00236859690391996903910399196841F404
:10171C008071196000962B464FF001112046FFF79F
:10172C00A4FE08B10323A7E7226848F0F103136174
:10173C00C3E70123A0E700BF08000100020001007D
:10174C0070B504460D46164623685B6913F0800F8E
:10175C0019D12046FFF774FEB8B9B5F1FF3FF3D0AD
:10176C0025B1FFF737F9801B8542EDD2236C43F08E
:10177C002003236400232363202284F83D2084F873
:10178C003C30032070BD002070BD012070BD70B5D1
:10179C0004460D46164623685B6913F0040F19D1F5
:1017AC002046FFF74DFEB8B9B5F1FF3FF3D025B198
:1017BC00FFF710F9801B8542EDD2236C43F0200318
:1017CC00236400232363202284F83D2084F83C30DA
:1017DC00032070BD002070BD012070BD70B50546A2
:1017EC000C4616462B685A6912F0400F22D15A69E2
:1017FC0012F0100F11D124B1FFF7ECF8801B8442CA
:10180C00F0D22B6C43F020032B64202385F83D3061
:10181C00002385F83C30032070BD6FF010025A6134
:10182C0000232B642B63202285F83D2085F83C3067
:10183C00012070BD002070BD002800F0A28070B5A2
:10184C00044690F83D30002B4FD0242384F83D30D3
:10185C002268136823F00103136000F0A7FE62688E
:10186C004A4B9A4246D84A4B98428CBF00230123DC
:10187C00002B40F08880474BA3FB00239B0C226875
:10188C00536021686568414A954239D801330B622F
:10189C00226861683D4B99423CD801384900B0FB45
:1018AC00F1F00130C0F30B00042838BF0420D061E4
:1018BC002268E369216A0B43136022682369E1689B
:1018CC000B43936022686369A1690B43D360226860
:1018DC00136843F00103136000202064202384F874
:1018EC003D30206384F83E0070BD80F83C3004F03D
:1018FC0045FBAAE7284B98428CBF00230123B7E78E
:10190C004FF4967202FB03F3244AA2FB03239B09B8
:10191C000133BCE7A568BDB9431E01EB4106B3FB1F
:10192C00F6F30133C3F30B03B3FA83F35B0933BB55
:10193C00C5B9431E01EB4100B3FBF0F00130C0F31D
:10194C000B0040F40040B2E7431E01EB810606EBAE
:10195C008606B3FBF6F30133C3F30B03B3FA83F33D
:10196C005B09E4E7431E01EB810000EB8000B3FB55
:10197C00F0F00130C0F30B0040F4404097E7012039
:10198C0095E701207047012070BD00BFA0860100C3
:10199C007F841E0083DE1B43FF083D00D34D621085
:1019AC002DE9F04184B004460D4690461F46FFF7E2
:1019BC0011F894F83D30DBB2202B04D002252846D8
:1019CC0004B0BDE8F0810646009019230122544969
:1019DC002046FFF74AFD08B10225F0E794F83C30A9
:1019EC00012B00F09A80012384F83C3023681A689C
:1019FC0012F0010F03D11A6842F001021A6022683A
:101A0C00136823F400631360212384F83D30102302
:101A1C0084F83E3000232364C4F824806785A3F542
:101A2C008033E362638D238533460A9A2946204628
:101A3C00FFF798FD054660B1236C042B04D00023FE
:101A4C0084F83C300325BAE7002384F83C300125A8
:101A5C00B5E70023039323685A6903929B690393A8
:101A6C00039B12E0236C042B01D00325A7E722680B
:101A7C00136843F4007313600125A0E732460A99FA
:101A8C002046FFF784FE00282DD1238D002B36D065
:101A9C0032460A992046FFF753FE0028E2D122680D
:101AAC00636A591C61621B781361638D9BB2013BA5
:101ABC009BB26385238D013B9BB2238522685169C0
:101ACC0011F0040FDAD0002BD8D0636A591C616274
:101ADC001B781361638D9BB2013B9BB26385238D95
:101AEC00013B2385CAE7236C042B01D0032566E751
:101AFC002268136843F40073136001255FE72268C2
:101B0C00136843F400731360202384F83D300023E2
:101B1C0084F83E3084F83C3051E702254FE700BF93
:101B2C00020010002DE9F04186B004460D469046A7
:101B3C001F46FEF74FFF94F83D30DBB2202B04D04C
:101B4C000225284606B0BDE8F08106460090192310
:101B5C00012292492046FFF788FC08B10225F0E7E4
:101B6C0094F83C30012B00F05281012384F83C3076
:101B7C0023681A6812F0010F03D11A6842F00102AF
:101B8C001A602268136823F400631360222384F81C
:101B9C003D30102384F83E3000232364C4F82480A5
:101BAC006785A3F58033E362638D238533460C9AF6
:101BBC0029462046FFF734FD054660B1236C042B03
:101BCC0004D0002384F83C300325BAE7002384F8C2
:101BDC003C300125B5E7238D5BB9029323685A6924
:101BEC0002929A690292029A1A6842F400721A607E
:101BFC0082E0012B0FD0022B21D02268136843F412
:101C0C00806313600023059323685A6905929B69CE
:101C1C000593059B70E02268136823F480631360BE
:101C2C0072B60023039323685A6903929A6903924C
:101C3C00039A1A6842F400721A6062B65CE0226879
:101C4C00136843F40063136072B600230493236893
:101C5C005A6904929A690492049A1A6822F480626E
:101C6C001A6062B648E032460C992046FFF7B6FD82
:101C7C0070B9636A5A1C6262226812691A70238DE9
:101C8C00013B2385638D9BB2013B9BB2638533E0A3
:101C9C00236C202B01D0012553E7032551E7009637
:101CAC000C9B00223E492046FFF7DFFB002840F04A
:101CBC00B08072B62268136843F400731360636AD1
:101CCC005A1C6262226812691A70238D013B2385AB
:101CDC00638D9BB2013B9BB2638562B6636A5A1CEF
:101CEC006262226812691A70238D013B2385638D11
:101CFC009BB2013B9BB26385238D002B7ED0032BC3
:101D0C0050D8012BAFD0022BC9D000960C9B0022CF
:101D1C0023492046FFF7A9FB00287CD122681368D1
:101D2C0023F48063136072B6636A5A1C6262226881
:101D3C0012691A70238D013B2385638D9BB2013B85
:101D4C009BB2638500960C9B002215492046FFF739
:101D5C008CFB002861D12268136843F40073136074
:101D6C00636A5A1C6262226812691A70238D013BE5
:101D7C002385638D9BB2013B9BB2638562B6636A1C
:101D8C005A1C6262226812691A70238D013B2385EA
:101D9C00638D9BB2013B9BB26385ADE702001000E3
:101DAC000400010032460C992046FFF717FD00BBDA
:101DBC00636A5A1C6262226812691A70238D013B95
:101DCC002385638D9BB2013B9BB2638523685A6963
:101DDC0012F0040F90D0626A511C61621B6913707F
:101DEC00238D013B2385638D9BB2013B9BB26385A5
:101DFC0082E7236C202B12D10325A2E6202384F842
:101E0C003D30002384F83E3084F83C3099E60225BE
:101E1C0097E6032595E6032593E6032591E6012530
:101E2C008FE600BF2DE9F04385B004460F4690467F
:101E3C001D46FEF7CFFD94F83D30DBB2202B04D0CD
:101E4C000223184605B0BDE8F0830646009019231E
:101E5C00012256492046FFF708FB08B10223F0E7A0
:101E6C0094F83C30012B00F09A80012384F83C302C
:101E7C0023681A6812F0010F03D11A6842F00102AC
:101E8C001A602268136823F400631360242384F817
:101E9C003D3000232364A3F58033E3624FF0010946
:101EAC0036E0A02384F83D3022685369C3F3400325
:101EBC005269C2F3802294F83D10C9B253B94AB9A1
:101ECC00A02907D0002DECD0FEF784FD801B8542A5
:101EDC00EAD2E6E7202384F83D3023685A6912F0F1
:101EEC00020F36D11A6842F400721A6023686FF43C
:101EFC0080625A610096192301222C492046FFF773
:101F0C00B4FA00284FD109F10103C1453FD29946DB
:101F1C002268136843F48073136000962B460022EA
:101F2C004FF001112046FFF7A0FA002839D12368A1
:101F3C0007F0FE021A61FEF74DFD06462268536952
:101F4C00C3F340035269C2F3802294F83D10C9B226
:101F5C00B4E71A6842F400721A60002303932368F2
:101F6C005A6903929B690393039B009619230122E0
:101F7C000E492046FFF779FA034608B1032360E7C0
:101F8C00202284F83D20002284F83C2059E72023AD
:101F9C0084F83D30002384F83C30012351E70223C0
:101FAC004FE703234DE703234BE700BF020010006C
:101FBC0082B0084B1B68084AA2FB03235B0A00FB98
:101FCC0003F0019000BF019B5A1E0192002BF9D126
:101FDC0002B070470C000020D34D621070B582B077
:101FEC000446036813F0010F3DD0AC4B5B6803F063
:101FFC000C03042B2ED0A94B5B6803F00C03082BAD
:10200C0023D06368B3F5803F51D0002B55D103F139
:10201C00804303F504331A6822F480321A601A687C
:10202C0022F480221A606368002B60D0FEF7D2FC89
:10203C0005469A4B1B6813F4003F14D1FEF7CAFCFB
:10204C00401B6428F5D90320AFE1944B5B6813F473
:10205C00803FD6D0914B1B6813F4003F03D06368CC
:10206C00002B00F09F81236813F0020F65D08B4B7F
:10207C005B6813F00C0F4ED0884B5B6803F00C03BD
:10208C00082B43D02369002B79D00122844B1A6092
:10209C00FEF7A0FC0546814B1B6813F0020F65D1BF
:1020AC00FEF798FC401B0228F5D903207DE17B4A02
:1020BC00136843F480331360B5E7B3F5A02F09D050
:1020CC00764B1A6822F480321A601A6822F4802245
:1020DC001A60A8E703F18043A3F53C331A6842F475
:1020EC0080221A601A6842F480321A609BE7FEF76D
:1020FC0071FC0546694B1B6813F4003FB3D0FEF727
:10210C0069FC401B6428F5D903204EE1634B5B68E6
:10211C0013F4803FB6D1614B1B6813F0020F04D04F
:10212C002369012B01D001203FE15C4A136823F0A5
:10213C00F803616943EAC1031360236813F0080FC5
:10214C0032D0A369002B6ED00122564B1A60FEF7D9
:10215C0041FC0546514B5B6A13F0020F21D1FEF78F
:10216C0039FC401B0228F5D903201EE14B4A1368A9
:10217C0023F0F803616943EAC1031360DDE7002231
:10218C00474B1A60FEF726FC0546444B1B6813F0C0
:10219C00020FD2D0FEF71EFC401B0228F5D90320FB
:1021AC0003E10120FFF704FF236813F0040F00F094
:1021BC0099803A4BDB6913F0805F46D1374BDA6973
:1021CC0042F08052DA61DB6903F080530193019B8A
:1021DC000125354B1B6813F4807F38D0E368012B45
:1021EC0049D0002B4DD103F1804303F504331A6A17
:1021FC0022F001021A621A6A22F004021A62E368DF
:10220C00002B5DD0FEF7E6FB0646244B1B6A13F051
:10221C00020F66D1FEF7DEFB801B41F28833984239
:10222C00F3D90320C1E000221E4B1A60FEF7D2FB4B
:10223C0005461A4B5B6A13F0020FB5D0FEF7CAFBCA
:10224C00401B0228F5D90320AFE00025C1E7164A50
:10225C00136843F480731360FEF7BCFB0646124B05
:10226C001B6813F4807FB9D1FEF7B4FB801B642884
:10227C00F5D9032099E0094A136A43F0010313626C
:10228C00BDE7052B12D0054B1A6A22F001021A6227
:10229C001A6A22F004021A62B1E700BF0010024071
:1022AC00000042428004424200700040414B1A6AD6
:1022BC0042F004021A621A6A42F001021A629EE7A4
:1022CC00FEF788FB06463B4B1B6A13F0020F08D047
:1022DC00FEF780FB801B41F288339842F3D9032030
:1022EC0063E0E5B9E369002B5ED0324A526802F034
:1022FC000C02082A5BD0022B17D000222E4B1A603E
:10230C00FEF768FB04462B4B1B6813F0007F47D08D
:10231C00FEF760FB001B0228F5D9032045E0254A97
:10232C00D36923F08053D361DCE70022224B1A607F
:10233C00FEF750FB05461F4B1B6813F0007F06D0C1
:10234C00FEF748FB401B0228F5D903202DE0236A39
:10235C00B3F5803F1AD017494B6823F47413226AE3
:10236C00606A024313434B600122134B1A60FEF761
:10237C0031FB04460F4B1B6813F0007F0ED1FEF7A8
:10238C0029FB001B0228F5D903200EE0094A5368EB
:10239C0023F40033A1680B435360DCE7002004E016
:1023AC00002002E0012000E0002002B070BD0120FE
:1023BC00FBE700BF001002406000424210B586B03F
:1023CC00154C94E80F000DF1180E0EE90F00238A3E
:1023DC00ADF80430114B5B6803F00C02082A18D1DD
:1023EC00C3F38342724412F8102C13F4803F03D1D0
:1023FC000B4800FB02F00DE0084B5B68C3F3404355
:10240C00734413F8143C074800FB02F0B0FBF3F0E4
:10241C0000E0044806B010BD546F000800100240E4
:10242C0000093D0000127A00594B1B6803F00703AA
:10243C008B420CD2564A136823F007030B431360EC
:10244C00136803F00703994201D00120704770B55F
:10245C00036813F0020F06D04E4A536823F0F003C2
:10246C008468234353600D460446036813F0010F40
:10247C0052D04368012B23D0022B28D0454A126836
:10248C0012F0020F00F0828042494A6822F00302E7
:10249C0013434B60FEF79EFA06466368012B1DD072
:1024AC00022B2AD03B4B5B6813F00C0F34D0FEF799
:1024BC0091FA801B41F288339842F3D9032070BD06
:1024CC00344A126812F4003FDED1012070BD314A4B
:1024DC00126812F0007FD7D1012070BD2D4B5B68C4
:1024EC0003F00C03042B17D0FEF774FA801B41F297
:1024FC0088339842F2D9032070BD264B5B6803F0F9
:10250C000C03082B08D0FEF765FA801B41F28833C8
:10251C009842F2D9032070BD1D4B1B6803F00703D2
:10252C009D420CD21A4A136823F007032B43136005
:10253C00136803F007039D4201D0012070BD23688E
:10254C0013F0040F06D0134A536823F4E063E168D8
:10255C000B435360236813F0080F07D00D4A5368E0
:10256C0023F46053216943EAC1035360FFF726FF4C
:10257C00084B5B68C3F30313074AD35CD840074B83
:10258C0018600020FEF7E4F9002070BD012070BD3A
:10259C000020024000100240E87400080C000020EB
:1025AC00014B1868704700BF0C00002008B5FFF7FE
:1025BC00F7FF044B5B68C3F30223034AD35CD84098
:1025CC0008BD00BF00100240F874000808B5FFF702
:1025DC00E7FF044B5B68C3F3C223034AD35CD840C8
:1025EC0008BD00BF00100240F8740008F8B505469D
:1025FC000F4616461C463BE02CB1FEF7EBF9069B4A
:10260C00C01A844234D82A68536823F0E00353601C
:10261C006B68B3F5827F0BD0AB6AB3F5005F14D057
:10262C00012385F85130002385F850300320F8BD84
:10263C00AB68B3F5004F02D0B3F5806FECD12A68CC
:10264C00136823F040031360E6E72A68136823F449
:10265C0000531B041B0C13602A68136843F40053CB
:10266C001360DDE70123B34209D0B4F1FF3FC3D1BE
:10267C002B689B6837EA0303F4D00023F3E70020B0
:10268C00F8BD10B582B0044600920B4600228021A2
:10269C00FFF7ACFF034620B1636D43F02003636585
:1026AC000323184602B010BD2DE9F04184B01D463D
:1026BC0090F85030012B04D10223184604B0BDE829
:1026CC00F08104460E469046012380F85030FEF708
:1026DC0081F9074694F85130DBB2012B07D0022365
:1026EC00012284F85120002284F85020E5E7002EC6
:1026FC0000F0A480B8F1000F00F0A280032384F84E
:10270C005130002363652663A4F83480A4F8368026
:10271C00A363A387E38763642364A368B3F5004FC3
:10272C001CD023681A6812F0400F03D11A6842F0CB
:10273C0040021A60E368B3F5006F15D063681BB1F3
:10274C00E38E9BB2012B44D1236816F8012B1A732C
:10275C00E38E9BB2013B9BB2E3863AE0226813689E
:10276C0043F480431360DCE763681BB1E38E9BB2D8
:10277C00012B13D1236836F8022BDA60E38E9BB25F
:10278C00013B9BB2E38609E0002D5BD0B5F1FF3F26
:10279C0004D0FEF71FF9C01B854255D9E38E9BB2BE
:1027AC0043B323689A6812F0020FEDD036F8022B6F
:1027BC00DA60E38E9BB2013B9BB2E386EEE7002D21
:1027CC0044D0B5F1FF3F04D0FEF704F9C01B85429D
:1027DC003ED9E38E9BB26BB123689A6812F0020F5C
:1027EC00EDD016F8012B1A73E38E9BB2013B9BB212
:1027FC00E386EEE700972B46012202212046FFF7E5
:10280C00F5FE08B103236BE73A4629462046FFF74D
:10281C0038FF034618B120236365012360E7A268E3
:10282C0032B903922268D168039192680392039A99
:10283C00626D002A3FF454AF012351E701234FE7A7
:10284C0001234DE703234BE7032349E7032347E722
:10285C00032345E72DE9F04385B098460C9D90F88D
:10286C005030012B04D10223184605B0BDE8F0838B
:10287C0004460F461646012380F85030FEF7AAF89E
:10288C00814694F85130DBB26268012B12D0B2F55C
:10289C00827F07D00223012284F85120002284F881
:1028AC005020E1E7A268002A40F0E980042B01D017
:1028BC000223F0E7002F00F0E480002E00F0E3800C
:1028CC00B8F1000F00F0E18094F85130DBB2012B2D
:1028DC002CD000236365A663A4F83E80A4F83C804A
:1028EC002763A4F83680A4F83480236463642368D7
:1028FC001A6812F0400F03D11A6842F040021A60B5
:10290C00E368B3F5006F15D063681BB1E38E9BB21F
:10291C00012B08D1236817F8012B1A73E38E9BB295
:10292C00013B9BB2E3864FF0010869E0052384F874
:10293C005130CEE763681BB1E38E9BB2012B08D1FB
:10294C00236837F8022BDA60E38E9BB2013B9BB213
:10295C00E3864FF001081AE0E38F9BB273B1236852
:10296C009A6812F0010F09D0DB6826F8023BE38F5E
:10297C009BB2013B9BB2E3874FF00108B5F1FF3FDF
:10298C0005D0FEF727F8A0EB090085427FD9E38E2E
:10299C009BB21BB9E38F9BB2002B4ED0B8F1000F4A
:1029AC00DAD0E38E9BB2002BD6D023689A6812F053
:1029BC00020FD1D037F8022BDA60E38E9BB2013BC9
:1029CC009BB2E3864FF00008C6E7E38F9BB273B16E
:1029DC0023689A6812F0010F09D0DB683370E38F1B
:1029EC009BB2013B9BB2E38701364FF00108B5F176
:1029FC00FF3F05D0FDF7EEFFA0EB0900854248D95B
:102A0C00E38E9BB213B9E38F9BB2B3B1B8F1000F55
:102A1C00DBD0E38E9BB2002BD7D023689A6812F0E0
:102A2C00020FD2D03A781A73E38E9BB2013B9BB261
:102A3C00E38601374FF00008C7E7CDF800902B462E
:102A4C00012202212046FFF7D1FD08B1032322E722
:102A5C004A4629462046FFF714FE034618B12023A8
:102A6C006365012317E7A268002A7FF414AF039271
:102A7C002268D168039192680392039A0BE70223B0
:102A8C0009E7012307E7012305E7012303E70323F4
:102A9C0001E70323FFE690F85100704700283CD073
:102AAC0010B504460023836290F85130002B31D0CE
:102ABC00022384F851302268136823F0400313601A
:102ACC0022686368A1680B43E1680B4321690B43DF
:102ADC0061690B43A16901F400710B43E1690B437C
:102AEC00216A0B43A16A0B4313602268638B03F0CA
:102AFC000403616A0B4353602368E26A1A6122681B
:102B0C00D36923F40063D36100206065012384F84A
:102B1C00513010BD03F05EFCCAE701207047000085
:102B2C002DE9F04705460268136923F44053C16848
:102B3C000B431361836802691343426913430168B1
:102B4C00CA6822F4B05222F00C021343CB60026824
:102B5C00536923F4407381690B435361D0F80080AF
:102B6C00594B984557D0FFF721FD00EB800000EB47
:102B7C0080006C68A400B0FBF4F4544FA7FB043441
:102B8C0064092601FFF712FD00EB800000EB8000CA
:102B9C006C68A400B0FBF4FAFFF708FD00EB8000B2
:102BAC0000EB80006C68A400B0FBF4F4A7FB0434C9
:102BBC0064094FF0640909FB14A424013234A7FB07
:102BCC000434640904F0F0043444FFF7EFFC00EB28
:102BDC00800000EB80006E68B600B0FBF6F6FFF7E5
:102BEC00E5FC00EB800000EB80006B689B00B0FB09
:102BFC00F3F0A7FB0030400909FB10694FEA0919F3
:102C0C0009F13209A7FB0937C7F343172744C8F862
:102C1C000870BDE8F087FFF7D9FC00EB800000EBF3
:102C2C0080006C68A400B0FBF4F4284FA7FB0434BC
:102C3C0064092601FFF7CAFC00EB800000EB800062
:102C4C006C68A400B0FBF4FAFFF7C0FC00EB80004A
:102C5C0000EB80006C68A400B0FBF4F4A7FB043418
:102C6C0064094FF0640909FB14A424013234A7FB56
:102C7C000434640904F0F0043444FFF7A7FC00EBBF
:102C8C00800000EB80006E68B600B0FBF6F6FFF734
:102C9C009DFC00EB800000EB80006B689B00B0FBA0
:102CAC00F3F3A7FB03235B0909FB13694FEA09192B
:102CBC0009F13209A7FB0937C7F343172744C8F8B2
:102CCC000870BDE8F08700BF003801401F85EB514C
:102CDC0058B310B5044690F839300BB3242384F85C
:102CEC0039302268D36823F40053D3602046FFF7B1
:102CFC0017FF2268136923F4904313612268536908
:102D0C0023F02A0353612268D36843F40053D36041
:102D1C000020E063202384F8393084F83A3010BD69
:102D2C0080F8383003F03EFCD8E7012070470000F3
:102D3C0008B5044B03EB8002526852680344187ABE
:102D4C00904708BDC802002008B5084B1B5C0BB1AE
:102D5C00002008BD054B01221A5403EB8002526877
:102D6C0012681844007A904708BD00BFC8020020C2
:102D7C0038B5044C04EB80056D68AD680444207ACA
:102D8C00A84738BDC802002038B5044C04EB8005B8
:102D9C006D68ED680444207AA84738BDC80200204D
:102DAC0010B5044B03EB8004646824690344187A5F
:102DBC00A04710BDC802002004E00A78027001315F
:102DCC0001301A46531E002AF7D1704702E00170F9
:102DDC0001301A46531E002AF9D1704770B40346CD
:102DEC00002001E029463346541E32B15E1C18788F
:102DFC004D1C0B782246C01AF4D070BC704700E012
:102E0C00013003780BB18B42FAD1184670470000A1
:102E1C0030B400252B4601E001250133012B21D8CC
:102E2C0003EB4304A2001D4CA258002AF4D000F579
:102E3C0080542468A242F0D103EB43029400174A59
:102E4C002244546841F2080282589442E5D103EBC3
:102E5C0043029400114A2244148941F20602825A18
:102E6C009442DAD1022B03D049B1102030BC704708
:102E7C0095B9022901D01220F8E70020F6E703EB00
:102E8C0043039A00054B13445B89B3F5807F01D053
:102E9C000020EBE71020E9E70020E7E7A80000207E
:102EAC00002000E00130012806D800EB400293001E
:102EBC00034AD358002BF5D1023818BF01207047B4
:102ECC00A800002070B4002300E00133012B1FD8B0
:102EDC0003EB4304A200324CA45800F58052126854
:102EEC009442F2D103EB430294002D4A22445468DD
:102EFC0041F2080282589442E7D103EB430294005A
:102F0C00274A2244148941F20602825A9442DCD1A7
:102F1C00022B3BD039B103EB43029000204A024410
:102F2C005289002A39D1002932D103EB4302910096
:102F3C001B4A0A445189013189B203EB43029000C8
:102F4C00174A02445181581C70BC70470133012B45
:102F5C0006D803EB4304A200114CA258002AF5D169
:102F6C00022B18D000F5805216680D4D5A001A44E9
:102F7C0094002A192E5141F208040459546041F26C
:102F8C000604005B108100205081C3E70023DEE7BC
:102F9C004FF48071D1E70020D6E70020D4E700BFC2
:102FAC00A80000200138012801D90220704700EB4D
:102FBC0040039A000B4B13445B89B3F5807F0DD013
:102FCC000BB1013B9BB200EB40029100054A0A4455
:102FDC0053812BB90020034A505070470023EFE770
:102FEC0000207047A80000200023012B13D810B438
:102FFC0003EB43018A0008498A58824204D001330A
:10300C00012BF5D910BC704703EB43018A00002457
:10301C0001498C50F3E77047A800002041F22403CB
:10302C00C258043200F58050006841F20A03C35ABA
:10303C00B1FBF3F141F20203C35CB1FBF3F1106895
:10304C0030B1814202D3091A0832F8E750680844BB
:10305C007047CA7E8B7E43EA022300F580500278CB
:10306C00032A01D018467047487D0A7D42EA0022A7
:10307C0043EA0243F6E78176C1F30723C376090CD2
:10308C000175090A41757047F0B44B730F23CB726D
:10309C0000250D738D76CD76561E06EB460306EB9A
:1030AC0083062B4602E001350C2D11D84FF6FF7428
:1030BC00A34202D030F8163001360B4C645D0B5530
:1030CC0001341F0A0F55002BEDD14FF6FF73EAE7C1
:1030DC004FF6FF74A34202D030F816300BB942F011
:1030EC0040020A70F0BC7047686F000870B582B07F
:1030FC00054616461C460B22FFF75EFE052C11D822
:10310C0007231FE001310F290DD802F0010000EB5D
:10311C004303520813F4803FF4D083F4883383F0D4
:10312C002103EFE72346328812B102360021EAE789
:10313C001C46E5E75A1E02A8034403F8081C2409A0
:10314C0009D0134604F00F0202F130013929F1D9EC
:10315C0002F13701EEE77E210346134403F8081C05
:10316C0000E00134944208D22B5D202BF9D104E00D
:10317C00202018700C46072909D8611C2B19072A26
:10318C00F6D802A8104410F8080C0132F1E702B08E
:10319C0070BD01460B220020C30143EA5003DBB291
:1031AC0008780344D8B20131013AF5D1704701686F
:1031BC0009B10A4603E04FF0FF3308E001321378FF
:1031CC001F2B01D93A2BF9D13A2B02D000231846E8
:1031DC00704710B44C1C0B78303B092B07D8A2421B
:1031EC0008D153B901320260184610BC70474FF039
:1031FC00FF33F9E74FF0FF33F6E74FF0FF33F3E718
:10320C00F8B541F20403C35C0BB90020F8BD0446C9
:10321C0041F22C03C658074601233246014641F2BF
:10322C000100205CFFF7B0FD08BB002241F2040353
:10323C00E25404F581531B68F31A41F21802A258A8
:10324C00934216D241F20303E55C0CE041F2180301
:10325C00E3581E4401233246394641F20100205CFA
:10326C00FFF792FD013D012DF0D80020F8BD0120A3
:10327C00F8BD0020F8BD70B541F22C03C3588B4249
:10328C0017D004460D46FFF7BBFF064608B1304683
:10329C0070BD01232A46214641F20100205CFFF754
:1032AC0067FD10B101264FF0FF3541F22C03E550BC
:1032BC00EDE70026EBE7000010B50446002241F2D2
:1032CC000403C2544FF0FF3241F22C03C250FFF7FB
:1032DC00D2FF08B1032010BD94F8FF2194F8FE3101
:1032EC0043EA02231BB2184A934201D0022010BDBC
:1032FC0094F8392094F838301B0443EA026394F8AC
:10330C00372043EA022394F83620134323F07F43FB
:10331C000E4A934215D094F8552094F854301B045F
:10332C0043EA026394F8532043EA022394F85220B0
:10333C00134323F07F43054A934201D0012010BD73
:10334C0010BD002010BD00BF55AAFFFF4641540020
:10335C0008B308B5024600F580531B68EBB103F5C2
:10336C008051097809B9092008BD41F20601595A62
:10337C0041F20400125A914201D0092008BD41F2D9
:10338C000102985CFFF7D4FC10F0010F01D009206A
:10339C0008BD002008BD09207047092008BD0000A9
:1033AC002DE9F04184B00646174600230360084619
:1033BC00FFF7FDFE051EC0F2CA815E4B03EB8503D1
:1033CC009C69002C00F0C781346004F580531B7895
:1033DC008BB141F20103E05CFFF7AAFC10F0010F86
:1033EC0009D1002F00F0B98110F0040F01D00A2090
:1033FC00AEE10020ACE104F5805300221A70E8B273
:10340C0041F20103E054FFF79FFC10F0010F01D0D3
:10341C0003209DE127B110F0040F01D00A2097E1A1
:10342C0004F580520A32022141F20103E05CFFF7FD
:10343C00B7FC002840F0938141F20A03E35AB3F53C
:10344C00007FC0F08E81B3F5805F01D901207FE150
:10345C0000212046FFF730FF012821D00026032849
:10346C0000F0818190B30D2072E1002304AA02EBDD
:10347C00810242F8103C0131032913D80B0103F5EA
:10348C00DF7323441A79002AEFD0D87A9A7A12047F
:10349C0042EA0062587A42EA00221B7A1343E5E7BB
:1034AC000021E9E7002508E031462046FFF704FF3C
:1034BC000028D4D00135032DD1D804AB03EB850300
:1034CC0053F8106C002EEFD10220F1E7227BE37A47
:1034DC0043EA022341F20A02A05A834201D00D2092
:1034EC0036E1E37DA27D52EA03220DD194F8273018
:1034FC0094F82620120442EA036294F8253042EA3A
:10350C00032294F824301A4341F21803E250217C30
:10351C0041F20303E1544B1EDBB2012B01D90D2008
:10352C0016E101FB02F1657B41F20203E5541DB982
:10353C000D200DE1A80000206B1E1D4240F01581EE
:10354C00A37C677C47EA032741F20803E7524FEA62
:10355C00501EB7FBFEF30EFB13739BB2002B40F017
:10356C00068194F814C0E37C53EA0C230ED194F832
:10357C0023C094F822301B0443EA0C6394F821C056
:10358C0043EA0C2394F820C043EA0C0394F80F8010
:10359C0094F80EC05CEA082C00F0EB8001EB0C08F0
:1035AC00B7FBFEFEC6447345C0F0E580A3EB0E03EB
:1035BC00B3FBF5F3002B00F0E08040F6F575AB4261
:1035CC0000F2B38001254FF6F578434500D9032569
:1035DC00023341F2140844F8083041F21C0844F854
:1035EC000860B44404F58158C8F800C0B64441F2F0
:1035FC00280844F808E0032D40F09980002F40F093
:10360C00BE8094F82F7094F82E10090441EA0761DB
:10361C0094F82D7041EA072194F82C70394341F24B
:10362C002407E1519B000344013BB3FBF0F39A42A6
:10363C00C0F0A9804FF0FF3341F21002A35041F2C9
:10364C000C02A350802241F20503E254032D5CD1FD
:10365C0094F8312094F8303043EA02231BB2012B4A
:10366C0053D1711C2046FFF706FE00284DD10022D5
:10367C0041F20503E25494F8FF2194F8FE3143EA39
:10368C0002231BB2414A93423FD1E278A3781B0438
:10369C0043EA0263627843EA0223227813433C4AEA
:1036AC00934232D194F8E72194F8E6311B0443EAB3
:1036BC00026394F8E52143EA022394F8E4211343CE
:1036CC00344A934221D194F8EB2194F8EA311B044B
:1036DC0043EA026394F8E92143EA022394F8E821CF
:1036EC00134341F21002A35094F8EF2194F8EE31F9
:1036FC001B0443EA026394F8ED2143EA022394F895
:10370C00EC21134341F20C02A35004F580531D70BD
:10371C00214A938B01339BB2938341F20602A3524D
:10372C002046FFF761FC002012E002254BE747B36F
:10373C00614441F22407E151022D01D15B0072E793
:10374C0003EB430103F0010303EB51036BE70B2085
:10375C0004B0BDE8F0810C20FAE70020F8E7012066
:10376C00F6E70120F4E70120F2E70D20F0E70D2049
:10377C00EEE70D20ECE70D20EAE70D20E8E70D2041
:10378C00E6E70D20E4E70D20E2E700BF55AAFFFFB6
:10379C005252614172724161A800002038B5044652
:1037AC00FFF72EFD054668B904F580531B78032BF3
:1037BC000AD00022114641F20103E05CFFF7F0FA57
:1037CC0000B10125284638BD41F20503E35C012B0D
:1037DC00EFD141F20A03E25A00212046FFF7F6FA34
:1037EC00552384F8FE31AA2384F8FF315223237029
:1037FC0063706123A3704122E270722184F8E4119A
:10380C0084F8E51184F8E62184F8E73141F21003DD
:10381C00E35884F8E831C3F3072284F8E921C3F3B1
:10382C00074284F8EA211B0E84F8EB3141F20C03B9
:10383C00E35884F8EC31C3F3072284F8ED21C3F389
:10384C00074284F8EE211B0E84F8EF3141F21C0381
:10385C00E258013241F22C03E2500123214641F29D
:10386C000100205CFFF790FA002241F20503E254BC
:10387C009FE700002DE9F04F83B0074688460E689D
:10388C0000E0013633782F2BFBD05C2BF9D007F5F9
:10389C0081531D68002402E025F81490544604F16D
:1038AC00010A305D1F2817D92F2815D05C2813D09A
:1038BC00FE2C00F2ED80012101F030FC8146002845
:1038CC0000F0E8807F28E7D801467348FFF797FAA5
:1038DC000028E1D0062017E05644C8F800601F28E5
:1038EC0002D84FF0040803E04FF0000800E0013C60
:1038FC0044B104F10043013B35F81330202BF6D0D2
:10390C002E2BF4D01CB9062003B0BDE8F08F002696
:10391C0025F814600B22202141F21803F858FFF708
:10392C0055FA00E0013635F81620202AFAD02E2A56
:10393C00F8D01EB148F0030800E0013C6CB104F172
:10394C000042013A35F812202E2AF6D14FF0080B1E
:10395C004FF0000ACDF804A00AE0A2464FF0080B85
:10396C000023019304E04C450BD048F003084E466D
:10397C0006F1010935F8166066B3202EF5D02E2E0F
:10398C00F1D0DA4511D24C450FD07F2E45D8002E00
:10399C0051D148F003085F2641F21803FB5803F895
:1039AC000A604E460AF1010AE2E7BBF10B0F0FD099
:1039BC004C4501D048F003084C450BD3019B9B00B0
:1039CC00DBB2019326464FF00B0B4FF0080ACFE702
:1039DC0048F0030841F21803FB581A78E52A46D040
:1039EC00BBF1080F46D0019901F00C020C2A46D00D
:1039FC0001F00303032B42D018F0020F06D1019BF8
:103A0C0003F00303012B3DD0042A3ED041F21803EE
:103A1C00FB5883F80B80002076E70021304601F03C
:103A2C007DFB064620B1A0F180061C4B33441E7C66
:103A3C0048F00208ABE731461948FFF7E0F90028D7
:103A4C00A7D1A6F141039BB2192B04D8019B43F0DB
:103A5C0002030193A0E7A6F161039BB2192B9BD83B
:103A6C00019B43F001030193203EB6B294E705227B
:103A7C001A70B5E7019B9B00DBB20193B3E748F0EA
:103A8C000208B9E748F01008BEE748F00808BDE79F
:103A9C00062039E7062037E700750008686F000834
:103AAC000C750008F8B501F1090541F21003C35873
:103ABC00002B3ED041F21403C65800230AE0E52344
:103ACC0010E02E242C7001350EE0102715E02B7021
:103ADC00013513460A2B15D85A1CF35C202BF8D051
:103AEC00052BECD0092AECD0A3F14104E4B2192C3B
:103AFC00EDD8347B082AE8D808272742E7D02033B2
:103B0C00DBB2E4E7F37A0B72F27FB37F1B0443EA78
:103B1C000263727F43EA0223327F13430B60727E8F
:103B2C00337E43EA02238B80F27DB37D43EA02238A
:103B3C00CB8000232B708D691DB341F21003C35849
:103B4C00E3B1CC69DCB141F22403C25A4FF6FF73E6
:103B5C009A4217D00E4600F58150036800249F1C32
:103B6C00188860B1002101F0D9FA68B1F369013B02
:103B7C009C420BD228553B460134F0E7002400232D
:103B8C002B55F8BD0024FAE70024F8E70024F6E7EB
:103B9C002DE9F84380460D460E7826F04006013E8E
:103BAC0006EB460306EB83060127002410E001F028
:103BBC00D1FA0746FE2E26D806F1010938F8160070
:103BCC0001F0C8FA874221D14E4601340C2C0FD893
:103BDC00144B1B5D5A1CAA5CE85C40EA0220002FC7
:103BEC00E5D14FF6FF739842EFD00020BDE8F88383
:103BFC002B7813F0400F0CD077B138F8163073B91E
:103C0C000120BDE8F8830020BDE8F8830020BDE862
:103C1C00F8830120BDE8F8830120BDE8F88300207B
:103C2C00BDE8F883686F0008023941F21403C358E9
:103C3C00023B994208D241F20203C35C41F22802D2
:103C4C00805803FB0100704700207047012940F2A7
:103C5C009180F8B541F21403C358994280F08C80DE
:103C6C000D46044600F580531B78022B3ED0032BE7
:103C7C005AD0012B01D00120F8BD01EB510600F503
:103C8C008153196841F20A03C35AB6FBF3F3194482
:103C9C00FFF7F1FA10B14FF0FF30F8BD771C41F28D
:103CAC000A03E35AB6FBF3F203FB1266A65D04F5B6
:103CBC0081521168B7FBF3F319442046FFF7DBFA86
:103CCC0010B14FF0FF30F8BD41F20A03E25AB7FBD6
:103CDC00F2F302FB1377E05D46EA002015F0010FCA
:103CEC0001D00009F8BDC0F30B00F8BD00F58153FD
:103CFC00196841F20A03C35A5B08B5FBF3F3194484
:103D0C00FFF7B9FA10B14FF0FF30F8BD690041F27E
:103D1C000A03E25AB1FBF2F302FB131163185B784E
:103D2C00605C40EA0320F8BD00F58153196841F24C
:103D3C000A03C35A9B08B5FBF3F31944FFF79BFA2C
:103D4C0010B14FF0FF30F8BDA90041F20A03E35A5D
:103D5C00B1FBF3F503FB15116318DA7898780004BE
:103D6C0040EA02605B7840EA0320635C184320F071
:103D7C007040F8BD012070470120F8BDF8B505462C
:103D8C0041F20603C15241F20803C458012C67D01A
:103D9C000E4600F580531B6841F214029A58944267
:103DAC0001D30220F8BD24B903F580521278032AFE
:103DBC0007D09CB941F208029A5A964205D30220C8
:103DCC00F8BD41F224029C58F3E741F224029858C2
:103DDC0041F20C03EC5048BB0220F8BD41F20A0240
:103DEC009F5A7A0941F202015F5C07FB02F7BE425F
:103DFC0015D305F5805321461868FFF727FF0446B5
:103E0C00B0F1FF3F2ED001282ED905F580531A684A
:103E1C0041F21403D358984228D2F61BE7E705F574
:103E2C00805321461868FFF7FFFED1E705F5805354
:103E3C001B6841F20A015A5A5209B6FBF2F21044BD
:103E4C0041F21002A8505A5A5209B6FBF2F102FB89
:103E5C00116603EB461341F21402AB500020F8BD7F
:103E6C000220F8BD0120F8BD0220F8BD0220F8BDEB
:103E7C00012940F2BA8041F21403C358994201D38C
:103E8C000223B3E02DE9F04116460C46054600F539
:103E9C0080531B78022B58D0032B77D0012B03D0E7
:103EAC0002231846BDE8F08101EB510700F5815360
:103EBC00196841F20A03C35AB7FBF3F31944FFF72D
:103ECC00DAF903460028ECD107F1010841F20A03A4
:103EDC00EB5AB7FBF3F203FB127714F0010429D071
:103EEC00EA5702F00F02310101F47F610A43D2B2AA
:103EFC00EA55012141F20402A95405F581521168D9
:103F0C00B8FBF3F319442846FFF7B5F9034600282C
:103F1C00C7D141F20A02A95AB8FBF1F201FB12888F
:103F2C0054B1C6F3071205F80820012141F204022E
:103F3C00A954B6E7F2B2DBE715F9082022F00F021C
:103F4C00C6F303263243D2B2EDE700F5815319686C
:103F5C0041F20A03C35A5B08B4FBF3F31944FFF7AD
:103F6C008AF9034600289CD1610041F20A02A85A42
:103F7C00B1FBF0F200FB121168186E54C6F3072265
:103F8C004270012141F20402A9548AE700F58153E1
:103F9C00196841F20A03C35A9B08B4FBF3F31944A2
:103FAC00FFF769F9034600287FF47BAFA10041F2CB
:103FBC000A02AA5AB1FBF2F402FB14116818C47875
:103FCC008278120442EA046202F0704232436A546C
:103FDC00C2F307214170C2F307418170120EC27007
:103FEC00012141F20402A9545BE7022318467047F1
:103FFC00F8B505460F4651B941F20C03C658AEB19F
:10400C0041F21403C3589E4211D301260FE0FFF76F
:10401C001DFE0346012850D9B0F1FF3F52D041F2AA
:10402C001402AA5890424DD33E4600E00126344675
:10403C000CE021462846FFF709FE034680B1B0F19B
:10404C00FF3F3FD001283DD0B4423AD0013441F279
:10405C001403EB589C42ECD3012E30D90224E8E730
:10406C006FF0704221462846FFF702FF034600B965
:10407C00AFB9DBB941F20C03EC5041F21003EB5831
:10408C00B3F1FF3F20D0013B41F21002AB5041F2A3
:10409C000502AB5C43F00103AB54234612E022460D
:1040AC0039462846FFF7E4FE0346E2E7012B01D030
:1040BC00012307E04FF0FF3304E0012302E000236B
:1040CC0000E000231846F8BD2346FBE72DE9F0413C
:1040DC0041F20603C45A0134A3B213B90420BDE85B
:1040EC00F08141F21003C35813B90420BDE8F081EC
:1040FC000E46054600F58052106841F20A02825ABB
:10410C005209B4FBF2F102FB1142DAB9013341F26C
:10411C001002AB5041F20C03E95839B941F20803D3
:10412C00C35A9C420ED30420BDE8F08141F20A032D
:10413C00C35A5B09B4FBF3F341F20202875C013F03
:10414C001F4015D041F20603EC5205F580531B6855
:10415C0041F20A029A5A5209B4FBF2F102FB1144E1
:10416C0003EB441341F21402AB500020BDE8F08184
:10417C00FFF76CFD8046012864D9B0F1FF3F64D095
:10418C0005F58053186841F21403C35898454BD376
:10419C0016B90420BDE8F08141F20C03E958FFF791
:1041AC0027FF804610B90720BDE8F08101284FD0C9
:1041BC00B0F1FF3F4FD005F580531868FFF720F89A
:1041CC0000284BD105F58056306841F20A03C25ADB
:1041DC000021FEF7FBFD366841463046FFF724FD13
:1041EC0041F22C03F05005F580531B6841F202029A
:1041FC009A5C974213D2012141F20402995405F5BD
:10420C0080531868FEF7FCFF58BB05F580531968FE
:10421C0041F22C028B5801338B500137E3E741F20A
:10422C002C015A58D21B5A5041F20C0345F803800A
:10423C0005F5805341461868FFF7F6FC41F2100370
:10424C00E8507FE70220BDE8F0810120BDE8F08155
:10425C000220BDE8F0810120BDE8F0810120BDE81D
:10426C00F0810120BDE8F0812DE9F04104460021E8
:10427C00FFF784FD8046002870D14FF6FF7241F2A3
:10428C002403E252FF273E460CE04FF6FF7241F248
:10429C002403E252FF2600212046FFF717FF804639
:1042AC0000285BD104F5805341F21002A158186824
:1042BC00FEF7E1FF8046002850D141F21403E55887
:1042CC002B78002B48D0EA7A02F03F01E52BDCD0AA
:1042DC0012F0080F01D00F29D7D10F2918D026B909
:1042EC002846FEF756FF874238D041F21803E158B2
:1042FC00CB7A13F0010F04D10B222846FEF76EFD8A
:10430C0060B34FF6FF7241F22403E252FF26C2E77C
:10431C0004F5815210680028BDD013F0400F09D06D
:10432C006F7B03F0BF0341F20602A15A41F2240253
:10433C00A1521E46B34201D0FF26ACE76B7B9F42D5
:10434C0001D0FF26A7E72946FFF722FC10B1013E5A
:10435C00F6B2A0E7FF269EE74FF004084046BDE802
:10436C00F08110B582B0044601910B782F2B2BD025
:10437C005C2B29D0002241F20803E250019B1B78F0
:10438C001F2B24D901A92046FFF774FA034638BB2A
:10439C002046FFF769FF41F21803E358DA7A034627
:1043AC0008BB12F0040F1BD141F21403E158CB7A75
:1043BC0013F0100F1ED004F580531868FEF749FE59
:1043CC0041F20803E050DDE701310191D2E71146DB
:1043DC002046FFF7D3FC0346002141F21402A15002
:1043EC00184602B010BD0428FAD112F0040FF7D110
:1043FC000523F5E70523F3E770B504460E460021C7
:10440C00FFF7BCFC0246F0B9002508E00135B542C7
:10441C0019D001212046FFF759FE024698B904F540
:10442C00805341F21002A1581868FEF724FF02468F
:10443C0048B941F21403E3581B78E52BE6D0002B66
:10444C00E4D00025E5E7042A01D0104670BD072210
:10445C00FBE700002DE9F04184B0054641F218035A
:10446C0050F8038000F581531E680C22414601A8C8
:10447C00FEF7A2FC9DF80F3013F0010F21D00023A2
:10448C0088F80B3005F5815213600124632C0CD88D
:10449C002346324601A94046FEF728FE2846FFF780
:1044AC00E3FE074608B90134F0E7642C00F088807D
:1044BC00042F16D19DF80F3088F80B3005F5815379
:1044CC001E609DF80F3013F0020F1AD10124214603
:1044DC002846FFF791FF074608B9013C13D1002F7E
:1044EC0047D0384604B0BDE8F081013336F81320CC
:1044FC00002AFAD103F11904324BA3FB0434A408AB
:10450C00E5E70023F2E741F20603E95A091B2846C6
:10451C00FFF734FC07460028E1D141F21803E858B4
:10452C00FEF737FE064605F5805341F21002A958F6
:10453C001868FEF7A0FE07460028D0D105F581507B
:10454C003346E2B241F2140169580068FEF79CFD53
:10455C0005F580531A68012141F20403D15400215E
:10456C002846FFF7B3FD07460028B8D1013CDAD145
:10457C00B5E705F5805341F21002A9581868FEF70B
:10458C007AFE07460028ACD141F214042022002107
:10459C002859FEF71BFC41F218060B22A959285981
:1045AC00FEF70AFC2A59AB59DB7A03F01803137394
:1045BC0005F580552A68012141F20403D15490E796
:1045CC0007278EE74FECC44EF8B5012933D90446C2
:1045DC000D4641F21403C358994201D302272BE034
:1045EC00002700E0354641F21403E3589D4223D2E4
:1045FC0029462046FFF72AFB0646E8B101281DD0C4
:10460C00B0F1FF3F1CD0002229462046FFF730FCBA
:10461C00074688B941F21003E358B3F1FF3FE1D0EC
:10462C00013341F21002A35041F20502A35C43F0A6
:10463C000103A354D6E702273846F8BD0227FBE74F
:10464C000127F9E770B584B001900091154604A8D4
:10465C0040F8041DFEF7ABFD061E20DB124B03EBEE
:10466C0086039C6934B12046FEF7BEFC04F58054E9
:10467C0000232370019B1BB103F5805200211170A4
:10468C00094800EB8600836163B1012D01D0002045
:10469C0006E00022694601A8FEF782FE00E00B202E
:1046AC0004B070BD0020FBE7A80000202DE9F04706
:1046BC00ADF5825D0191002800F004810446154699
:1046CC0000F5805300221A6005F01F0805F01E0249
:1046DC0008AB01A903F6F870FEF762FE0646002847
:1046EC0040F0F18008AB06AEA3F1140241F21803BE
:1046FC00F25006F58153764A1A6001993046FFF75D
:10470C0030FE41F21403F758064650B9002F70D012
:10471C0038F0010314BF0121002106A8FEF778FB35
:10472C00064615F01C0F00F0BA80002E6DD0042E3A
:10473C0061D048F0080841F2140306AAD75816B9FC
:10474C0018F0080F6CD1EEB918F0080F01D048F032
:10475C00200808A8D0F8F82F41F22C03D25841F2C7
:10476C001C03E25004F581531F6038F0010314BFA1
:10477C000121002106A8FEF7A5FB41F22803E05019
:10478C0000B90226002E40F09E8041F2060904F882
:10479C000980002541F20703E5540DF580531833C9
:1047AC00D3F8008039464046FEF753FC41F2100323
:1047BC00E050FA7FBB7F1B0443EA02637A7F43EA33
:1047CC0002233A7F134341F20C02A35041F2080337
:1047DC00E55041F21803E55041F22403E55004F58D
:1047EC008053C3F8008038F8092041F20403E252E8
:1047FC0069E0062695E7FEF753FB08B9122698E701
:10480C0006A8FFF727FE064693E7FB7A13F0110F75
:10481C0004D115F0040F92D0082690E707268EE7F6
:10482C0000F0B2FFB873C0F30723FB73C0F3074368
:10483C003B74000E78740025FD723D777D77BD7753
:10484C00FD770DF120093946D9F8F80FFEF701FC78
:10485C00824629463846FEF70EFCD9F8F80F01229D
:10486C0041F20403C254BAF1000F3FF46CAF41F2B1
:10487C002C03C5585146FFF7A7FE064600287FF4C7
:10488C0062AF0DF58053183318680AF1FF3341F20B
:10489C000C0283502946FEF7EEFC064653E7002E29
:1048AC007FF451AFFB7A13F0100F09D115F0020F02
:1048BC003FF449AF13F0010F3FF445AF072642E731
:1048CC00042640E7092630460DF5825DBDE8F087E9
:1048DC00C80000202DE9F04F83B004460F46164661
:1048EC0098460023C8F80030FEF732FD019068B9F5
:1048FC0041F20703E35C002B40F0468141F20603D2
:10490C00E35C13F0020F05D107230193019803B068
:10491C00BDE8F08F41F20803E358F342C0F0E980A0
:10492C000026E6E041F22403E358002B56D0204643
:10493C00FEF774FB002800F01581012855D0B0F16A
:10494C00FF3F58D041F21403E05041F21003E358FA
:10495C0013B941F21003E05041F20603E35C13F08B
:10496C00400F4ED104F58053D3F800B041F214033C
:10497C00E1585846FFF758F9824600285ED0AA4401
:10498C0041F20A033BF80390B6FBF9F9B9F1000FB9
:10499C0073D005EB090341F202021BF8022093428B
:1049AC0001D9A2EB05094B465246394641F20100AA
:1049BC001BF80000FEF7E8F9002845D141F2180376
:1049CC00E158A1EB0A0AD14544D804F580531A6882
:1049DC0041F20A03D35A03FB09F97DE041F21403B7
:1049EC00E1581046FFF704FBA4E7022341F207024B
:1049FC00A35401938AE7012341F20702A3540193C4
:104A0C0084E704F58053D3F800E0012341F2180247
:104A1C00A258214641F201001EF80000FEF7B4F93D
:104A2C0030B941F20602A35C23F04003A35499E78A
:104A3C00012341F20702A354019367E7022341F2D9
:104A4C000702A354019361E7012341F20702A35427
:104A5C0001935BE704F580531A6841F20A03D15ABB
:104A6C000A4601FB0A712046FEF7A6F941F206023E
:104A7C00A35C23F04003A354A7E741F21803E358C7
:104A8C009A4507D041F20803E25841F20C03E3586F
:104A9C009A4256D341F2180344F803A004F580530C
:104AAC001A6841F20A0332F8039041F20803E35802
:104ABC00B3FBF9F009FB1030A9EB00094E4500D20D
:104ACC00B1464A4639462044FEF776F941F20602D1
:104ADC00A35C43F04003A3544F4441F20802A35893
:104AEC004B44A350D8F800304B44C8F80030A6EB28
:104AFC000906002E36D041F20803E15804F5805324
:104B0C001A6841F20A03D55AB1FBF5F305FB1313EE
:104B1C00002BC3D1B1FBF5F541F20203D35C013B91
:104B2C00DBB21D407FF418AF00297FF4FBAE41F2DD
:104B3C001003E05800287FF4FDAE1046FFF758FA3A
:104B4C00F8E601235246214641F201001BF8000011
:104B5C00FEF70EF900289DD0012341F20702A35461
:104B6C000193D3E641F20803E35841F20C02A25838
:104B7C00934202D941F20C02A35041F20602A35C0B
:104B8C0043F02003A354C1E60193BFE638B50446B5
:104B9C00FEF7DEFB034638BB41F20602A25C12F0C4
:104BAC00200F21D012F0400F14D004F580531D6853
:104BBC00012341F21802A258214641F20100285C5F
:104BCC00FEF7E2F800284CD141F20602A35C23F078
:104BDC004003A35404F5805341F21C02A1581868F9
:104BEC00FEF749FB034608B1184638BD04F581535E
:104BFC001D68EB7A43F02003EB7241F20C03E25C8C
:104C0C002A77E25A120A6A77E258C2F30742AA7765
:104C1C00E3581B0EEB7741F21003E1582846FEF7E0
:104C2C002AFA00F0B1FDA875C0F30723EB75C0F3A9
:104C3C0007432B76000E68760023AB74EB7441F2BD
:104C4C000602A35C23F02003A35404F580542268CD
:104C5C00012141F20403D1542068FEF79FFD034665
:104C6C00C2E70123C0E710B50446FFF78FFF0346E8
:104C7C0008B1184610BD2046FEF76AFB0346002813
:104C8C00F7D141F22803E058FEF78CF903460028CF
:104C9C00EFD104F5805400222260EAE72DE9F84FA9
:104CAC0004460E46FEF754FB0546002840F0D08122
:104CBC0041F20703E35C002B40F0C98141F224036D
:104CCC00E358002B00F0BB80B6F1FF3F22D041F23D
:104CDC000C03E758BE4200D8374641F20803E750B0
:104CEC00002F00F0B5817E1E31462046FEF796F966
:104CFC00014641F21403E05004F58053D3F80080D0
:104D0C004046FEF791FF002850D1022541F20703DF
:104D1C00E5549DE103F1040BD3F800A041F210031C
:104D2C0054F80390B9F1000F31D04FF0020808F19C
:104D3C0002084E460027013704F5805331461868A7
:104D4C00FEF784FF012818D9B0F1FF3F1AD0731C6D
:104D5C0006469842EFD0C24505D35B4643F8087B24
:104D6C00CBF804909B4604F580531A6841F2140367
:104D7C00D35898420DD28146D9E7022541F2070358
:104D8C00E55465E1012541F20703E55460E14FF07C
:104D9C00020841F22403E358C3F80080D04501D93E
:104DAC00112555E10023CBF8003051E141F20A0204
:104DBC0038F80220B6FBF2F641F2020118F80110A5
:104DCC0001390E400644B7FBF2F302FB1377002FB8
:104DDC0000F03E8141F21803E258964200F038810F
:104DEC0041F20603E35C13F0400F0ED00123214681
:104DFC0041F2010018F80000FDF7C6FFB0B941F20E
:104E0C000602A35C23F04003A35404F580531F68EF
:104E1C0001233246214641F20100385CFDF7A8FF20
:104E2C0048B1012541F20703E55411E1012541F296
:104E3C000703E5540CE141F21803E65008E141F296
:104E4C000C03E3589E4206D941F20602A25C12F012
:104E5C00020F00D11E4641F20803E2580021E15036
:104E6C0066B304F58053186841F20203C35C41F247
:104E7C000A0130F8018008FB03F892B1711EB1FBF6
:104E8C00F8F1531EB3FBF8F291420AD3C8F10007B4
:104E9C001F4041F20802A750F71B41F21403E658D9
:104EAC0009E041F21003E358002B54D041F21402F4
:104EBC00A35037461E46002E40F0828041F2080374
:104ECC00E15804F58053186841F20A03C25AB1FB49
:104EDC00F2F302FB13135BB341F21803E258964250
:104EEC0026D041F20603E35C13F0400F0FD00123F0
:104EFC00214641F20107C05DFDF746FF002840F056
:104F0C009C8041F20602A35C23F04003A35404F5F9
:104F1C0080531F6801233246214641F20100385C60
:104F2C00FDF726FF002840F08D8041F21803E65073
:104F3C0041F20803E35841F20C02A258934240F2AA
:104F4C00878041F20C02A35041F20602A35C43F0AD
:104F5C002003A3547CE00021FFF74AF80346012804
:104F6C0006D0B0F1FF3F08D041F21002A0509DE7EF
:104F7C00022541F20703E5546AE0012541F20703DB
:104F8C00E55465E004F5805331461868FEF75EFE83
:104F9C000646B6F1FF3F40D0012E43D904F58053AD
:104FAC001A6841F21403D3589E423BD241F21403C7
:104FBC00E65041F20802A3584344A350A7EB08075C
:104FCC0047450FD941F20603E35C13F0020FD9D029
:104FDC0004F5805331461868FFF70AF80646002896
:104FEC00D7D1474641F20802A3583B44A35004F5DD
:104FFC008053186841F20A0330F80380B7FBF8F3CA
:10500C0008FB1373BBB13146FEF70EFE064670B9B2
:10501C00022541F20703E5541AE0012541F207038A
:10502C00E55415E0022541F20703E55410E0B7FB07
:10503C00F8F73E4442E7002640E7012541F207031A
:10504C00E55405E0012541F20703E55400E01D4657
:10505C002846BDE8F88F000030B5ADF5825D81B013
:10506C0001900D46002208AB01A903F6F870FEF77B
:10507C0097F9044620B120460DF5825D01B030BD94
:10508C0008AB06A8A3F1140241F21803C25000F5B4
:10509C0081530B4A1A600199FFF763F90446002803
:1050AC00E9D141F2140306AAD35833B1002DE2D052
:1050BC0029461046FEF7F6FCDDE70624DBE700BFC9
:1050CC00C8000020114B5B7ADBB2012B01D9012007
:1050DC00704730B40D4C657AEDB200236355657A98
:1050EC0004EB85056860607A20440272627AD2B261
:1050FC00501CC0B2607230320A703A224A702F22B1
:10510C008A70CB70184630BC704700BFC8020020B4
:10511C0008B50022FFF7D6FF08BD00007F2816D97E
:10512C0031B1FF2812D88038094B33F81000704782
:10513C0000237F2B07D8064A32F81320904202D066
:10514C0001339BB2F5E78033D8B27047002070472B
:10515C0028700008002200E00132074B03EB4203E9
:10516C00B3F800310BB18342F6D123B1024B03EB00
:10517C004202B2F8E00270472870000808B50E48E9
:10518C000E4B03600923436000238360C3604FF41C
:10519C00A0220261436183610122C2610362436206
:1051AC008362C362FBF7B3FC00B908BD4F2104480E
:1051BC0000F008FFF9E700BF8C13002000640040EA
:1051CC00487500080268214B9A4200D0704730B5F0
:1051DC0087B003F5D633DA6942F00072DA61DB6925
:1051EC0003F000730193019B4FF48073029300242E
:1051FC0003940494164D02A92846FCF721F84FF4A9
:10520C0000730293022303930323059302A92846F8
:10521C00FCF716F80F4A536823F4C04343F0E063DD
:10522C0043F480435360224621461320FBF79EFF34
:10523C001320FBF7CDFF224621461420FBF796FFE7
:10524C001420FBF7C5FF07B030BD00BF0064004061
:10525C00000C01400000014000B58BB0002300930E
:10526C0001934EF21F0202924FF6F87203920493CE
:10527C00059306930123079308930E23099369461C
:10528C000548FBF7C1FB10B90BB05DF804FBAD2171
:10529C00024800F097FEF7E78C13002048750008D1
:1052AC0008B500210448FBF7D3FC00B908BDC9219F
:1052BC00024800F087FEF9E78C13002048750008BF
:1052CC0040F2213303600023436083600361C361B8
:1052DC0004E0C218002111750133DBB2072BF8D999
:1052EC007047000010B50A4C2046FFF7E9FF094B48
:1052FC0004F124021A635C634FF44073636201236C
:10530C00A36200232363E3620823636310BD00BF21
:10531C00D40200208C13002010B504460368102220
:10532C00DA600021FBF794FC23682022DA6000226B
:10533C0084F83C2021684B6943F40F4343F05B0332
:10534C004B6184F83D2010BD38B500220E490F4842
:10535C00FFF778F900240E4D22460E49284601F03D
:10536C00ADF90D492846FFF777FE0134E4B2042865
:10537C00F1D1094C082229462046FFF797F920461F
:10538C00FFF771FC38BD00BF5875000814030020EE
:10539C00342400205C750008001400203438772871
:1053AC0000F2C380DFE800F03CBAC1C1C1C1C1C189
:1053BC00C1C1C1C1C1C1C1C1C1C1C1C1C1C1C1C1D1
:1053CC00C1C1C1C1C1C1C1C1C1C1C1C1C1C1C1C1C1
:1053DC00C1C1C1C1C1C1C1C1C140C155C1454DC18E
:1053EC00C1C1C1C1C1C1C1C1C1C1C1C1C1C1C1C1A1
:1053FC00C1C1C1C1C1C1C1C1C1C1C1C1C1C1C1C191
:10540C00C1C1C1C1C1C1C1C1C1C1C1C1C1C1C1C180
:10541C006F8193A5C1C1C1C1C1C1C1C1C1C160B3BB
:10542C000A88424B1A8070470A88414B23F8C82CD3
:10543C0070473F4B8A8823F8C62CCA8823F8C42CA3
:10544C0070473B4B8A8823F8C22CCA8823F8C02C9F
:10545C007047374B8A8823F8BE2C0A8823F8BC2C5B
:10546C004A8823F8BA2C70470A88324B1A804A882B
:10547C00314B1A808A88314B1A80B1F906202C4B9B
:10548C0023F8B82C7047B1F90020294B23F8B62C1F
:10549C00B1F9022023F8B42CB1F9042023F8B22C72
:1054AC00B1F9062023F8B02C7047B1F90020204B3D
:1054BC0023F8AE2CB1F9022023F8AC2CB1F904205E
:1054CC0023F8AA2CB1F9062023F8A82C7047B1F9BF
:1054DC000020174B23F8A62CB1F9022023F8A42C9A
:1054EC00B1F9042023F8A22CB1F9062023F8A02C42
:1054FC007047B1F900200E4B23F89E2CB1F9022015
:10550C0023F89C2CB1F9042023F89A2C70470A68D4
:10551C000B4B1A604A680B4B1A6070470A88044B95
:10552C0023F8982C4A8823F8962C7047FC130020FB
:10553C000C1400202C24002048240020D013002020
:10554C0030240020D41300202DE9F04FEFB0754B20
:10555C00B3F90E50B3F91040734AB2F912102491FA
:10556C00B2F914002590B2F916202692B3F90C006A
:10557C00FAF74EFF00226D4BFAF7B0FF00226C4B8E
:10558C00FAF7ACFF00226B4BFAF7F4FDFBF7B8F916
:10559C0003B227932846FAF73BFF0022634BFAF736
:1055AC009DFF0022624BFAF799FF0022624BFAF73B
:1055BC00E3FDFBF7A5F906B228962046FAF728FF7B
:1055CC0000225A4BFAF78AFF0022594BFAF786FF52
:1055DC0000225A4BFAF7D0FDFBF792F907B2299744
:1055EC00122257495748FFF761F8574B33F8C82C2C
:1055FC002A9233F8C44C2B9433F8C65C009533F8DC
:10560C00BA5C019533F8BC5C029533F8BE5C03952B
:10561C0033F8C05C049533F8C25C059533F8985C9C
:10562C00069533F8965C0795484A15880E95484AB6
:10563C0015880F95474A15881095474A1568119596
:10564C00464A15681295464A1588139533F9B85C85
:10565C00149533F9B65C159533F9B42C33F9B21CA7
:10566C0033F9B00C33F9AE4C33F9AC5C33F9AA6CAA
:10567C0033F9A87C33F9A6EC33F9A4CC33F9A28C1A
:10568C0033F9A09C33F99EAC33F99CBC33F99A3CAA
:10569C002393CDF888B0CDF884A0CDF88090CDF8C8
:1056AC007C80CDF878C0CDF874E01C971B961A95C9
:1056BC001994189017911692299F0D97289E0C9665
:1056CC00279D0B95269C0A9425980990249908915E
:1056DC002B9B2A9A23492DA800F0F0FF044641F297
:1056EC000C03184AD1581046FFF7D8FA6DAB224676
:1056FC002DA91448FFF7EEF81248FFF7B4FA28B1B9
:10570C000022194B1A706FB0BDE8F08F4FF4804136
:10571C0000F1804000F58830FBF78EFE0122124B21
:10572C001A70F0E75C4500207C4500200000103F1B
:10573C0000408F40008040400000334000405C40FF
:10574C0034240020001400200C1400202C240020F1
:10575C0048240020D013002030240020D413002033
:10576C00FC130020687500084A24002008B5034982
:10577C000348FFF7CDFC034B187008BD4C240020E8
:10578C001000002050240020002070470022014B04
:10579C001A70704778130020014B1878704700BFBF
:1057AC007813002000B583B08DF807000748FDF78B
:1057BC0072F90128FAD14FF47A7301220DF1070125
:1057CC000248FCF771FF03B05DF804FB04450020B0
:1057DC0008B500224FF480710148FBF727FE08BD85
:1057EC000008014008B501224FF480710148FBF715
:1057FC001DFE08BD0008014000B585B0FF238DF8E3
:10580C000F3000238DF80E300A48FDF744F90128BB
:10581C00FAD14FF47A73009301230DF10E020DF1BE
:10582C000F010448FDF716F89DF80E0005B05DF861
:10583C0004FB00BF0445002010B582B0FFF7D2FF77
:10584C00002403E0FF20FFF7ADFF0134092CF9DD44
:10585C00FFF7BEFF40238DF8003000248DF8014087
:10586C008DF802408DF803408DF8044095238DF897
:10587C00053006E002AB234413F8080CFFF792FF47
:10588C000134052CF6DD41F6FF74FFF7B5FF012856
:10589C0002D00CB1013CF8E7FFF7A4FFFF20FFF7A3
:1058AC0081FF0122014B1A7002B010BD7813002049
:1058BC0008B53222064B1A70FFF79EFFFFF79CFFCC
:1058CC00FF2803D0024B1B78002BF7D108BD00BF7B
:1058DC00A847002038B504460D46FFF7E9FFFF281E
:1058EC0001D0FF2038BD2046FFF75CFF280EFFF7E4
:1058FC0059FFC5F30740FFF755FFC5F30720FFF726
:10590C0051FFE8B2FFF74EFF402C11D00020482C7D
:10591C0010D0FFF747FF4C2C0ED00A24FFF76CFF7A
:10592C0010F0800FDED0631E13F0FF04F6D138BDEB
:10593C009520ECE78720ECE7FFF75EFFEDE710B56D
:10594C000446FFF759FF207010BD000070B50446E7
:10595C000E460A220E4B1A70FFF74EFFFF2803D19A
:10596C000B4B1B78002BF7D1FE2801D0002070BD0B
:10597C00651C2046FFF7E3FF28460234FFF7DFFFE4
:10598C00023EF5D1FFF738FFFFF736FF012070BD5F
:10599C00A9470020F8B506460C46FFF789FFFF28FB
:1059AC0001D00020F8BD2046FFF7FCFEFD2C21D0D5
:1059BC000024354615F8020BFFF7F4FE7078FFF75C
:1059CC00F1FE631E2E4613F0FF04F2D1FFF714FF15
:1059DC00FFF712FF402C09D8FFF70EFF074600F027
:1059EC001F03052B02D0631CDCB2F3E7FFF704FFA7
:1059FC000028FBD007F01F07052F01D00020F8BDB1
:105A0C000120F8BD002840F0B8805D4B1B7813F0E6
:105A1C00020F03D05A4B1878C0B2704710B582B041
:105A2C00FFF70AFFFFF7D4FE00214020FFF752FFDB
:105A3C00012813D00024534B5C70FFF7D3FEFFF703
:105A4C00DBFE002C00F096804D4A137803F0FE0329
:105A5C0013704B4B1878C0B202B010BD64224A4B85
:105A6C001A704FF4D5714820FFF734FF012817D076
:105A7C0000217720FFF72EFF012848D9012459E097
:105A8C00FFF7BAFE02AB234403F8040C0134E4B272
:105A9C00032CF5D99DF80630012B03D00024CAE75E
:105AAC000024F5E79DF80730AA2B04D00024C2E7A8
:105ABC00354B1B7863B100217720FFF70BFF0128D2
:105ACC00F6D84FF080416920FFF704FF0028EFD192
